:100000000C9434000C9451000C9451000C94510049
:100010000C9451000C9451000C9451000C94D2009B
:100020000C9451000C9451000C9451000C9451000C
:100030000C9451000C9451000C9451000C945100FC
:100040000C9451000C9451000C9451000C945100EC
:100050000C9451000C9451000C9451000C945100DC
:100060000C9451000C94510011241FBECFEFD8E026
:10007000DEBFCDBF11E0A0E0B1E0EEEFFBE002C0DB
:1000800005900D92AE32B107D9F721E0AEE2B1E0B2
:1000900001C01D92A933B207E1F70E948B020C94B4
:1000A000FD050C94000080E091E080933501909371
:1000B00036011092C00086E08093C50091E89093CD
:1000C000C4008093C20088E18093C100089590919C
:1000D000C00095FFFCCF8093C6000895CF93DF93B7
:1000E0000F92CDB7DEB789838A3019F48DE00E9474
:1000F000670089810E94670080E090E00F90DF91A7
:10010000CF9108958091C00087FFFCCF8091C600F9
:1001100008958091C00087FB882780F90895CF93C8
:10012000DF93EC018881811103C0DF91CF910895A5
:1001300021960E946700F6CFEF92FF920F931F93D4
:10014000CF93DF9300D00F92CDB7DEB78C011A8228
:100150001B82615071097B010E94820089830E9489
:10016000670099819A3071F4F80110828A819B812D
:100170000F900F900F90DF91CF911F910F91FF90F3
:10018000EF900895F981FD3079F3F8018981819329
:100190008F01EA81FB813196EA83FB83EE16FF062D
:1001A000D9F6E2CF1F921FB61F9211248F939F930F
:1001B00080912E01811561F049990AC085B194E0C2
:1001C000892785B99F918F911F901FBE1F90189509
:1001D0002A98F8CF10922E012A98089581E08093F2
:1001E0002E010895229A2A9882E08093B00091E02F
:1001F0009093B10091ED9093B300809370000C94B4
:10020000EA008AB180698AB984B18C7F84B985B1EA
:10021000836085B93A98429A8BB188668BB9089504
:1002200080E480937C0087E880937A00089587704B
:10023000806480937C0080917A00806480937A004F
:1002400080917A0086FDFCCF8091780090917900B2
:100250000895411111C0683321E0720780F0693CB4
:10026000724080F4883321E0920778F0893C924014
:1002700078F484E291E008958EE091E0089580E1C1
:1002800091E0089582E191E0089584E191E008957C
:1002900086E191E00895EFE9FFE03197F1F700C0C2
:1002A00000000197C1F70895CF92DF92EF92FF927D
:1002B0000F931F93CF93DF9399B1C1E0CC2E93FDA1
:1002C000CC2609B1DC2E05FDDC2619B1EC2E16FD7D
:1002D000EC26D3B1FC2ED1FDFC268091320193FF98
:1002E00005C0811579F00E94EA000CC081110AC096
:1002F000609135017091360184E590E00E94EA0238
:10030000C0932E018091310105FF05C0811581F058
:100310000E94EA000DC081110BC0609135017091FF
:10032000360187E490E00E94EA0281E080932E018A
:100330008091300116FF05C0811581F00E94EA000E
:100340000DC081110BC0609135017091360183E5BC
:1003500090E00E94EA0281E080932E0180912F01BB
:10036000D1FF05C0811581F00E94EA000DC0811106
:100370000BC0609135017091360180E590E00E94DC
:10038000EA0281E080932E01C0923201D0923101C5
:10039000E0923001F0922F01DF91CF911F910F91E8
:1003A000FF90EF90DF90CF9008955C9A85ED8A954D
:1003B000F1F700005C980895CF93C82F87FF1FC006
:1003C000289AC6FF1EC05F9AC5FF1DC05E9AC4FF73
:1003D0001CC05D9A0E94D50185ED8A95F1F7000059
:1003E000C3FF15C0289AC2FF14C05F9AC1FF13C093
:1003F0005E9AC0FF12C05D9ACF910C94D5012898E7
:10040000E0CF5F98E1CF5E98E2CF5D98E3CF289888
:10041000EACF5F98EBCF5E98ECCF5D98EDCF5B9A1B
:100420000E94DC018FE39FE10197F1F700C000001B
:1004300008955B980E94DC018FE19EE40197F1F73B
:1004400000C0000008955C982FEF89EF90E02150E4
:1004500080409040E1F700C0000083E30E94190251
:1004600083E30E94190282E30E94190288E20E943B
:1004700019028CE00E94190281E00E9419022FEFFC
:1004800089EF90E0215080409040E1F700C00000EB
:1004900008950F931F93CF93DF9300D000D0CDB773
:1004A000DEB78C839A83498380EC623009F080E860
:1004B0000E9419028FE19EE40197F1F700C000004D
:1004C0000C811A811A821B82F801808181110CC073
:1004D000F981F1111BC00F900F900F900F90DF91D9
:1004E000CF911F910F9108950F5F1F4F0E940F0230
:1004F000EA81FB813196EA83FB83E6CF80E20E94AA
:100500000F028A819B8101968A839B83EA81FB810A
:100510007097A4F3E0CFCDB7DEB761970FB6F8942C
:10052000DEBF0FBECDBF0E9401010E9410010E94DC
:1005300053000E94F2000E94230284EF91E00E9487
:100540004B01789441E061E088E191E00E9449022A
:1005500084E2E82E81E0F82E6E012FEFC21AD20A53
:100560000E94540180E00E9417018C0181E00E94EA
:1005700017014427329B4395BC01C8010E94290101
:100580008C01E816F90601F1FC0180818115E9F082
:100590001F930F938EE191E09F938F930E942B0303
:1005A0001F930F9385E291E09F938F93DF92CF92F9
:1005B0000E94410341E062E0C6010E9449020FB679
:1005C000F894DEBF0FBECDBF780188EC90E00E94AA
:1005D0004B01C6CFA3E0B0E0E0EFF2E00C94D5050C
:1005E000182F99836A837B83DB0113968C9181FD9D
:1005F00009C01FEFBFEFB983812F99812396E3E0F4
:100600000C94F10582FF1BC0EA81FB8126813781B2
:10061000848195812817390754F40190F081E02DE9
:10062000CF010196AA81BB818D939D931083EA81AE
:10063000FB8186819781019686839783DDCFAA818E
:10064000BB811896ED91FD911A97BD01812F0995F7
:10065000892B69F3CECFA0E0B0E0E1E3F3E00C94A6
:10066000D605AE014B5F5F4FFA0161917191AF0109
:1006700080913501909136010E946503E2E00C946F
:10068000F205AEE0B0E0E7E4F3E00C94D60586E0D6
:100690008C832B893C8929833A838FEF9FE78D8355
:1006A0009E83AE01495E5F4F6D897E89CE010196C2
:1006B0000E946503EF81F8852B893C89E20FF31FC7
:1006C00010822E96E2E00C94F205ACE0B0E0EBE68E
:1006D000F3E00C94C9055C016B017A01FC01168200
:1006E0001782838181FFD3C12AE0522EF501238135
:1006F000F60123FD859123FF81916F01811509F496
:100700002CC1853239F423FD959123FF91916F011E
:10071000953229F4B50190E00E94EA02E7CF30E07B
:10072000712C00E010E0103210F59B32C9F050F44B
:100730009032B9F09332C9F09E3261F516FD0DC1C9
:10074000106405C09D3279F0903399F41160F60180
:1007500023FD959123FF91916F019111E4CF23C067
:1007600012601460F4CF1860F2CF1061F0CF17FD63
:100770001AC080ED890F8A30F8F616FF05C0759C07
:10078000800D1124782EE3CF059D800D1124082FB4
:100790001062DDCF9C3611F41068D9CF9C3409F477
:1007A00040C09836A1F2892F8F7D85548330D8F1CF
:1007B000933609F45FC0933709F46AC0933509F49E
:1007C00076C0943619F0993609F0A2C0F70117FFE8
:1007D00098C061917191819191917F011F7697FFEE
:1007E00003C00E94BE0510682AE030E04E014FEFC2
:1007F000841A940AA4010E946005682E681816FFE6
:10080000D2C0812F8E7F671408F0CCC014FF1DC1A9
:1008100012FD11C11E7E972C812F867809F4CEC05F
:100820000FC131E094CF311509F1F8E0EF0EF11C62
:100830008FE3898391E0692E712C4E018FEF881A26
:10084000980A1F7713FD04C06016710408F43FC0B6
:100850006114710409F042C0011509F447CFB501D4
:1008600080E290E00E94EA020150F6CF44E0E40EFC
:10087000F11CDECFF70180818983F2E0EF0EF11CDD
:1008800081E0682E712C4E014FEF841A940AD9CF63
:10089000F701819091907F01672D70E016FD02C0F5
:1008A0006FEF7FEFC4010E9455053C01CACFF701ED
:1008B000819091907F01672D70E016FD02C06FEF6F
:1008C0007FEFC4010E944A053C011068BBCFB5010F
:1008D00080E290E00E94EA020150B6CFF40117FDD9
:1008E000859117FF81914F01B50190E00E94EA02C6
:1008F00081E0011101C080E0081BF1E06F1A71086E
:10090000A7CF61917191872F880F880B982F65CFA2
:100910009537C9F41F7E1C872AE030E0FC85F7FF7D
:100920003BC0F70161917191819191917F014E01DD
:100930004FEF841A940AA4010E946005682E68187B
:100940001C851F775CCF812F897F8C87903799F02A
:1009500058F49835B9F09F36E1F0F501868197811A
:100960002C96EFE00C94E5059837B9F714FD06C016
:1009700020E130E0D3CF9C8590619C87EC85E460DA
:10098000EC87F6CF14FF02C016601C8720E132E02E
:10099000C5CF28E030E0C2CFF7016191719180E0CE
:1009A00090E0C4CF182F962C14FF36CFFE01E60D31
:1009B000F11D8081803309F041C0197E13FD0EC006
:1009C00010FF4FC0762C901618F4700E7918902EE8
:1009D000802F8919091508F480E0980E901608F008
:1009E00042C0091914FF41C0B50180E390E00E94A4
:1009F000EA0212FF09C088E590E011FD02C088E715
:100A000090E0B5010E94EA026714D0F14E018FEF29
:100A1000881A980A6A94FE013296E60DF11D3F018C
:100A2000F30182913F01B50190E00E94EA0268144F
:100A30007904B1F711CF972C182FB8CF12FD02C04F
:100A40009394BCCF93949394B9CF972C182FE4CE62
:100A5000B50180E290E00E94EA0283948016C0F320
:100A6000B7CF892CFBCF00E0BDCF812F867861F214
:100A700080E211FD8BE217FD8DE2B50190E0C2CF5F
:100A8000B50180E390E00E94EA027A94BDCF8FEF37
:100A90009FEF66CFFC010590615070400110D8F7C0
:100AA000809590958E0F9F1F0895FC0161507040B6
:100AB00001900110D8F7809590958E0F9F1F089593
:100AC000FA01AA27283051F1203181F1E8946F937F
:100AD0006E7F6E5F7F4F8F4F9F4FAF4FB1E03ED025
:100AE000B4E03CD0670F781F891F9A1FA11D680FC3
:100AF000791F8A1F911DA11D6A0F711D811D911DF6
:100B0000A11D20D009F468943F912AE0269F11246A
:100B10003019305D3193DEF6CF010895462F4770CE
:100B2000405D4193B3E00FD0C9F7F6CF462F4F7029
:100B3000405D4A3318F0495D31FD4052419302D087
:100B4000A9F7EACFB4E0A69597958795779567952D
:100B5000BA95C9F700976105710508959B01AC012D
:100B60000A2E06945795479537952795BA95C9F754
:100B7000620F731F841F951FA01D08959095809587
:100B8000709561957F4F8F4F9F4F08952F923F92A1
:100B90004F925F926F927F928F929F92AF92BF928D
:100BA000CF92DF92EF92FF920F931F93CF93DF9339
:100BB000CDB7DEB7CA1BDB0B0FB6F894DEBF0FBE96
:100BC000CDBF09942A88398848885F846E847D84E3
:100BD0008C849B84AA84B984C884DF80EE80FD80E5
:100BE0000C811B81AA81B981CE0FD11D0FB6F8945B
:0E0BF000DEBF0FBECDBFED010895F894FFCF1C
:100BFE0000000002000000006E0000000000530024
:100C0E00460042004C0052005265616479004A3A37
:0E0C1E0025730D0A004A6F793A2025730000F5
:00000001FF
