:100000000C9434000C9451000C9451000C94510049
:100010000C9451000C9451000C9451000C9451001C
:100020000C9451000C9451000C9451000C9451000C
:100030000C9451000C9451000C9451000C945100FC
:100040000C9451000C9451000C9451000C945100EC
:100050000C9451000C9451000C9451000C945100DC
:100060000C9451000C94510011241FBECFEFD8E026
:10007000DEBFCDBF12E0A0E0B1E0ECEEFEE002C0DA
:1000800005900D92AE37B107D9F722E0AEE7B2E0A6
:1000900001C01D92A438B207E1F70E9444020C94FB
:1000A00074070C94000080E091E0809380029093AC
:1000B0008102519A50981092C50080E18093C4004B
:1000C000E1ECF0E0808188608083808180618083C2
:1000D00086E08093C200E0EC808182608083089596
:1000E0009091C00095FFFCCF8093C6000895CF93F8
:1000F000DF930F92CDB7DEB789838A3019F48DE094
:100100000E94700089810E94700080E090E00F9052
:10011000DF91CF9108958091C00087FFFCCF80913F
:10012000C60008958091C00087FB882780F9089554
:10013000CF93DF93EC018881811103C0DF91CF91D0
:10014000089521960E947000F6CFEF92FF920F93D0
:100150001F93CF93DF9300D00F92CDB7DEB78C0102
:100160001A821B82615071097B010E948B00898376
:100170000E94700099819A3071F4F80110828A818E
:100180009B810F900F900F90DF91CF911F910F9156
:10019000FF90EF900895F981FD3079F3F80189819E
:1001A00081938F01EA81FB813196EA83FB83EE160E
:1001B000FF06D9F6E2CF209A8AB1886F8AB92198D2
:1001C000299A3A98429A089580E480937C0087E8BF
:1001D00080937A0008958770806480937C0080917A
:1001E0007A00806480937A0080917A0086FDFCCF4B
:1001F00080917800909179000895411111C0683381
:1002000021E0720780F0693C724080F4883321E07D
:10021000920778F0893C924078F481E491E0089567
:100220008EE091E008958FE191E0089580E391E000
:10023000089582E591E0089583E691E00895209184
:100240008400309185008091840090918500821B0C
:10025000930B80389E43B8F30895CF93DF93EC015E
:10026000209719F4DF91CF91089521970E941F01E3
:10027000F7CFFC0181E086BB23E330E0199921C070
:1002800081E086BB23E330E0199B26C081E086BB7A
:10029000409184005091850060E070E09B0191E006
:1002A0002E173F0754F120918400309185002417C8
:1002B000350710F461507109CB01241B350BB901CE
:1002C0000895B09BDBCF81E086BB21503040B1F672
:1002D00080E090E0BC010895B09BD6CF81E086BB62
:1002E00021503040A9F3D0CFB09B07C096BB6F5FC1
:1002F0007F4F613084E078075CF71999F5CF199B3F
:1003000003C02F5F3F4FCCCFB09BF9CF96BB6F5F41
:100310007F4F613084E0780794F3DACF5C9A85ED03
:100320008A95F1F700005C980895CF93C82F87FF56
:100330001FC0289AC6FF1EC05F9AC5FF1DC05E9AE7
:10034000C4FF1CC05D9A0E948E0185ED8A95F1F76D
:100350000000C3FF15C0289AC2FF14C05F9AC1FFF6
:1003600013C05E9AC0FF12C05D9ACF910C948E01AB
:100370002898E0CF5F98E1CF5E98E2CF5D98E3CF19
:100380002898EACF5F98EBCF5E98ECCF5D98EDCFE1
:100390005B9A0E9495018FE39FE10197F1F700C0FE
:1003A000000008955B980E9495018FE19EE40197FB
:1003B000F1F700C0000008955C982FEF89EF90E0FE
:1003C000215080409040E1F700C0000083E30E948C
:1003D000D20183E30E94D20182E30E94D20188E22B
:1003E0000E94D2018CE00E94D20181E00E94D201E1
:1003F0002FEF89EF90E0215080409040E1F700C05E
:10040000000008950F931F93CF93DF9300D000D087
:10041000CDB7DEB78C839A83498380EC623009F0D4
:1004200080E80E94D2018FE19EE40197F1F700C0BD
:1004300000000C811A811A821B82F80180818111CF
:100440000CC0F981F1111BC00F900F900F900F900D
:10045000DF91CF911F910F9108950F5F1F4F0E9461
:10046000C801EA81FB813196EA83FB83E6CF80E213
:100470000E94C8018A819B8101968A839B83EA81BD
:10048000FB817097A4F3E0CFCDB7DEB761970FB6CD
:10049000F894DEBF0FBECDBF0E94DB000E94E400D7
:1004A0000E945300809181008160809381000E94AE
:1004B000DC0184EF91E00E942D0184E791E09F939D
:1004C0008F930E9435048FE791E00E944B0488EAE5
:1004D00091E09F938F9382EB91E09F938F930E9483
:1004E00035048DEB91E09F938F9386EC91E09F9381
:1004F0008F9382ED91E09F938F930E94350441E0AA
:1005000061E087EE91E00E94020241E062E08DEE40
:1005100091E00E9402020FB6F894DEBF0FBECDBF7D
:1005200086EEC82E81E0D82E7E019FEFE91AF90AE7
:1005300080E00E94EB00B82EA92E81E00E94EB0023
:100540004C017724329B7394472DBC018B2D9A2D3F
:100550000E94FD008C01C816D90699F01F927F9267
:100560009F928F92AF92BF921F938F9382EF91E0F1
:100570009F938F930E9435040FB6F894DEBF0FBE91
:10058000CDBF8AE090E00E943901161617061806C2
:1005900019060CF051C00E94A90320E836E948E191
:1005A0005DE40E9435039B01AC0160E070E080E8EF
:1005B0009FE30E943503A62E972E882E792E1F9337
:1005C0000F931F921F921F921F929F938F937F935F
:1005D0006F9385E192E09F938F930E9435047F9201
:1005E0008F929F92AF9284E392E09F938F93FF92BA
:1005F000EF920E94770441E061E0C7010E9402028D
:100600001F921F921F921F928EE392E09F938F93EF
:10061000FF92EF920E94770441E062E0C7010E94DE
:1006200002020FB6F894DEBF0FBECDBF88EC90E09B
:100630000E942D0168017CCF1F930F9388E492E004
:100640009F938F930E94350441E061E08CE592E036
:100650000E94020241E062E08DE692E00E94020206
:100660000F900F900F900F90E1CF0E9449030C94D0
:10067000FB030E94F40358F00E94ED0340F029F4BC
:100680005F3F29F00C94E40351110C942F040C9457
:10069000EA030E940C0468F39923B1F3552391F304
:1006A000951B550BBB27AA2762177307840738F0E1
:1006B0009F5F5F4F220F331F441FAA1FA9F335D03E
:1006C0000E2E3AF0E0E832D091505040E695001CF2
:1006D000CAF72BD0FE2F29D0660F771F881FBB1FAC
:1006E000261737074807AB07B0E809F0BB0B802D8A
:1006F000BF01FF2793585F4F3AF09E3F510578F0B6
:100700000C94E4030C942F045F3FE4F3983ED4F37D
:10071000869577956795B795F7959F5FC9F7880F89
:10072000911D9695879597F90895E1E0660F771FDB
:10073000881FBB1F621773078407BA0720F0621B6C
:10074000730B840BBA0BEE1F88F7E0950895E894BD
:1007500009C097FB3EF490958095709561957F4F09
:100760008F4F9F4F9923A9F0F92F96E9BB279395B7
:10077000F695879577956795B795F111F8CFFAF4C7
:10078000BB0F11F460FF1BC06F5F7F4F8F4F9F4FF8
:1007900016C0882311F096E911C0772321F09EE856
:1007A000872F762F05C0662371F096E8862F70E0BC
:1007B00060E02AF09A95660F771F881FDAF7880F96
:1007C0009695879597F9089597F99F6780E870E067
:1007D00060E008959FEF80EC089500240A941616B7
:1007E000170618060906089500240A94121613061F
:1007F000140605060895092E0394000C11F48823AD
:1008000052F0BB0F40F4BF2B11F460FF04C06F5FC8
:100810007F4F8F4F9F4F089557FD9058440F551F9E
:1008200059F05F3F71F04795880F97FB991F61F072
:100830009F3F79F087950895121613061406551FE9
:10084000F2CF4695F1DF08C0161617061806991F55
:10085000F1CF86957105610508940895E894BB274A
:1008600066277727CB0197F90895A0E0B0E0EBE386
:10087000F4E00C944D07AE014B5F5F4FFA016191BC
:100880007191AF0180918002909181020E949B043E
:10089000E2E00C9469070F931F93CF93DF93E091ED
:1008A0008002F09181022381EC0100E010E021FD43
:1008B0000EC00FEF1FEFC801DF91CF911F910F9175
:1008C000089521960995892B11F00FEF1FEF88816C
:1008D0006091800270918102DB011896ED91FD918B
:1008E0008111EFCF8AE00995892B29F3E2CFAEE0A1
:1008F000B0E0EDE7F4E00C944D0786E08C832B89A3
:100900003C8929833A838FEF9FE78D839E83AE01D5
:10091000495E5F4F6D897E89CE0101960E949B04DE
:10092000EF81F8852B893C89E20FF31F10822E9608
:10093000E2E00C946907ACE0B0E0E1EAF4E00C948A
:1009400040075C016B017A01FC01168217828381EA
:1009500081FFD3C12AE0522EF5012381F60123FD48
:10096000859123FF81916F01811509F42CC1853296
:1009700039F423FD959123FF91916F01953229F46C
:10098000B50190E00E949606E7CF30E0712C00E0C0
:1009900010E0103210F59B32C9F050F49032B9F0EB
:1009A0009332C9F09E3261F516FD0DC1106405C089
:1009B0009D3279F0903399F41160F60123FD959101
:1009C00023FF91916F019111E4CF23C01260146055
:1009D000F4CF1860F2CF1061F0CF17FD1AC080ED90
:1009E000890F8A30F8F616FF05C0759C800D11241A
:1009F000782EE3CF059D800D1124082F1062DDCFE6
:100A00009C3611F41068D9CF9C3409F440C0983654
:100A1000A1F2892F8F7D85548330D8F1933609F464
:100A20005FC0933709F46AC0933509F476C09436F1
:100A300019F0993609F0A2C0F70117FF98C061912B
:100A40007191819191917F011F7697FF03C00E9460
:100A5000350710682AE030E04E014FEF841A940AFF
:100A6000A4010E94D706682E681816FFD2C0812FF5
:100A70008E7F671408F0CCC014FF1DC112FD11C198
:100A80001E7E972C812F867809F4CEC00FC131E0ED
:100A900094CF311509F1F8E0EF0EF11C8FE3898353
:100AA00091E0692E712C4E018FEF881A980A1F77FA
:100AB00013FD04C06016710408F43FC06114710492
:100AC00009F042C0011509F447CFB50180E290E07A
:100AD0000E9496060150F6CF44E0E40EF11CDECFF2
:100AE000F70180818983F2E0EF0EF11C81E0682E2E
:100AF000712C4E014FEF841A940AD9CFF7018190DF
:100B000091907F01672D70E016FD02C06FEF7FEFBF
:100B1000C4010E948B063C01CACFF70181909190DD
:100B20007F01672D70E016FD02C06FEF7FEFC401FB
:100B30000E9480063C011068BBCFB50180E290E0C6
:100B40000E9496060150B6CFF40117FD859117FF5C
:100B500081914F01B50190E00E94960681E001115C
:100B600001C080E0081BF1E06F1A7108A7CF619106
:100B70007191872F880F880B982F65CF9537C9F40F
:100B80001F7E1C872AE030E0FC85F7FF3BC0F701A1
:100B900061917191819191917F014E014FEF841A82
:100BA000940AA4010E94D706682E68181C851F7736
:100BB0005CCF812F897F8C87903799F058F49835D6
:100BC000B9F09F36E1F0F501868197812C96EFE030
:100BD0000C945C079837B9F714FD06C020E130E0AB
:100BE000D3CF9C8590619C87EC85E460EC87F6CF41
:100BF00014FF02C016601C8720E132E0C5CF28E058
:100C000030E0C2CFF7016191719180E090E0C4CFF4
:100C1000182F962C14FF36CFFE01E60DF11D8081B2
:100C2000803309F041C0197E13FD0EC010FF4FC084
:100C3000762C901618F4700E7918902E802F891942
:100C4000091508F480E0980E901608F042C00919C2
:100C500014FF41C0B50180E390E00E94960612FFA8
:100C600009C088E590E011FD02C088E790E0B50179
:100C70000E9496066714D0F14E018FEF881A980AE9
:100C80006A94FE013296E60DF11D3F01F301829157
:100C90003F01B50190E00E94960668147904B1F70F
:100CA00011CF972C182FB8CF12FD02C09394BCCF50
:100CB00093949394B9CF972C182FE4CEB50180E28A
:100CC00090E00E94960683948016C0F3B7CF892CDB
:100CD000FBCF00E0BDCF812F867861F280E211FD6D
:100CE0008BE217FD8DE2B50190E0C2CFB50180E344
:100CF00090E00E9496067A94BDCF8FEF9FEF66CF6B
:100D0000FC010590615070400110D8F780959095D6
:100D10008E0F9F1F0895FC016150704001900110DB
:100D2000D8F7809590958E0F9F1F0895A3E0B0E0AF
:100D3000ECE9F6E00C944C07182F99836A837B83C7
:100D4000DB0113968C9181FD09C01FEFBFEFB983C2
:100D5000812F99812396E3E00C94680782FF1BC0E2
:100D6000EA81FB81268137818481958128173907A3
:100D700054F40190F081E02DCF010196AA81BB814E
:100D80008D939D931083EA81FB81868197810196E3
:100D900086839783DDCFAA81BB811896ED91FD9163
:100DA0001A97BD01812F0995892B69F3CECFFA01DE
:100DB000AA27283051F1203181F1E8946F936E7F9A
:100DC0006E5F7F4F8F4F9F4FAF4FB1E03ED0B4E08B
:100DD0003CD0670F781F891F9A1FA11D680F791FCC
:100DE0008A1F911DA11D6A0F711D811D911DA11DDD
:100DF00020D009F468943F912AE0269F11243019ED
:100E0000305D3193DEF6CF010895462F4770405D87
:100E10004193B3E00FD0C9F7F6CF462F4F70405D36
:100E20004A3318F0495D31FD4052419302D0A9F791
:100E3000EACFB4E0A6959795879577956795BA958B
:100E4000C9F700976105710508959B01AC010A2E51
:100E500006945795479537952795BA95C9F7620F28
:100E6000731F841F951FA01D089590958095709500
:100E700061957F4F8F4F9F4F08952F923F924F92D2
:100E80005F926F927F928F929F92AF92BF92CF921A
:100E9000DF92EF92FF920F931F93CF93DF93CDB723
:100EA000DEB7CA1BDB0B0FB6F894DEBF0FBECDBF9B
:100EB00009942A88398848885F846E847D848C846C
:100EC0009B84AA84B984C884DF80EE80FD800C8175
:100ED0001B81AA81B981CE0FD11D0FB6F894DEBF58
:0C0EE0000FBECDBFED010895F894FFCFC8
:100EEC0000000002000000007700000000005052DB
:100EFC00455353454420202020202020202000460C
:100F0C004F525741524420202020202020202000E6
:100F1C004241434B57415244202020202020202086
:100F2C000043454E544552202020202020202020D4
:100F3C0020004C454654202020202020202020201A
:100F4C0020200052494748542020202020202020D7
:100F5C00202020001B5B324A1B5B313B3148004197
:100F6C00544D656761333238502043617061636959
:100F7C0074616E6365204D65746572202B204A6F19
:100F8C0079737469636B0D0070726F6A6563742E8C
:100F9C00630046696C653A2025730D0A0031343ABA
:100FAC0032363A3237004D617220313220323032D3
:100FBC003600436F6D70696C65643A2025732C2084
:100FCC0025730D0A0D0A00467265713A0043617073
:100FDC003A004A6F79737469636B3A202573207CED
:100FEC0020583D25347520593D2534752053573DE7
:100FFC0025750D0A00463A252E326620487A2020A7
:10100C00433A252E3366206E4620204A6F793A25C6
:10101C00730D0A00463A252E316620487A00433A71
:10102C00252E3366206E46004E4F205349474E41C5
:10103C004C20204A6F793A25730D0A00467265716F
:10104C003A204E4F205349474E414C20004361708B
:0E105C003A20202D2D2D2D2D2D2D2020200071
:00000001FF
