:100000000C94C8020C94E5020C94E5020C94E502F1
:100010000C94E5020C94E5020C94E5020C94660342
:100020000C94E5020C94E5020C94E5020C94E502B4
:100030000C94E5020C94E5020C94E5020C94E502A4
:100040000C94E5020C94E5020C94E5020C94E50294
:100050000C94E5020C94E5020C94E5020C94E50284
:100060000C94E5020C94E502000000000000000082
:100070000000000000000000000000000000000080
:100080000000000000000000000000000000000070
:100090000000000000000000000000000000000060
:1000A0000000000000000000000000000000000050
:1000B0000000000000000000000000000000000040
:1000C0000000000000000000000000000000000030
:1000D0000000000000000000000000000000000020
:1000E0000000000000000000000000000000000010
:1000F0000000000000000000000000000000000000
:1001000000000000000000000000000000000000EF
:100110000000000000000000000000FCFCFC0303E5
:10012000030303FCFC0000000000FCFCFC030303D1
:100130000383FCFC00000000000000000000000041
:1001400000000000000000000000000000000000AF
:10015000000000000000000000000000000000009F
:10016000000000000000000000000000000000008F
:10017000000000000000000000000000000000007F
:10018000000000000000000000000000000000006F
:100190000000000000000000000000FFFFFF000062
:1001A0000000FFFFFF8080808080FFFFFF808000D5
:1001B00000FFFFFF00000000000000000000000042
:1001C000000000000000000000000000000000002F
:1001D000000000000000000000000000000000001F
:1001E000000000000000000000000000000000000F
:1001F00000000000000000000000000000000000FF
:1002000000000000000000000000000000000000EE
:10021000000000000000000000F0F80F0F0F0000C9
:1002200000000001010101010101010101010100C2
:1002300000010F0FF8F800000000000000000000AF
:1002400000000000000000000000000000000000AE
:10025000000000000000000000000000000000009E
:10026000000000000000000000000000000000008E
:10027000000000000000000000000000000000007E
:10028000000000000000000000000000000000006E
:10029000000000000000000000FFFF000000000060
:1002A000000000FFFF0000000000000000FFFF0052
:1002B00000000000FFFF0000000000000000000040
:1002C000000000000000000000000000000000002E
:1002D000000000000000000000000000000000001E
:1002E000000000000000000000000000000000000E
:1002F00000000000000000000000000000000000FE
:1003000000000000000000000000000000000000ED
:1003100000000000000000000003030C1C1C6060D3
:10032000E0E0E0606060606060606060E0E0E0E04D
:10033000E0E09C9C636360606080800000000000DF
:1003400000000000000000000000000000000000AD
:10035000000000000000000000000000000000009D
:10036000000000000000000000000000000000008D
:10037000000000000000000000000000000000007D
:10038000000000000000000000000000000000006D
:100390000000000000000000000000F0F0F00C0C75
:1003A000FFFFFF0000F0F0F00000000000FFFF037F
:1003B00003037F7FF0F07070700F0F0000000000EB
:1003C000000000000000000000000000000000002D
:1003D000000000000000000000000000000000001D
:1003E000000000000000000000000000000000000D
:1003F00000000000000000000000000000000000FD
:1004000000000000000000000000000000000000EC
:1004100000000000000000000000003F3F3F3838AF
:100420003F3F3F38383F3F3F38383838383F3F3814
:10043000383838383F3F000000000000000000005E
:1004400000000000000000000000000000000000AC
:10045000000000000000000000000000000000009C
:100460000000000000000000000000000000005F2D
:1004700000000007000700147F147F14242A7F2A3D
:100480001223130864623649552250000503000008
:10049000001C2241000041221C0014083E081408E0
:1004A000083E0808005030000008080808080060EE
:1004B00060000020100804023E5149453E00427F82
:1004C000400042615149462141454B311814127F89
:1004D0001027454545393C4A494930017109050312
:1004E0003649494936064949291E0036360000007A
:1004F000563600000814224100141414141400414C
:100500002214080201510906324979413E7E111137
:10051000117E7F494949363E414141227F41412276
:100520001C7F494949417F090909013E4149497AEE
:100530007F0808087F00417F41002040413F017F44
:10054000081422417F404040407F0204027F7F0424
:1005500008107F3E4141413E7F090909063E415155
:10056000215E7F09192946464949493101017F0128
:10057000013F4040403F1F2040201F3F4038403F48
:100580006314081463070870080761514945430064
:1005900011241FBECFEFD8E0DEBFCDBF11E0A0E039
:1005A000B1E0E8E8F4E102C005900D92A435B1078E
:1005B000D9F721E0A4E5B1E001C01D92AF35B20743
:1005C000E1F70E94B1060C94420A0C94000080E00E
:1005D00091E080935B0190935C011092C00086E0F3
:1005E0008093C50091E89093C4008093C20088E195
:1005F0008093C10008959091C00095FFFCCF809337
:10060000C6000895CF93DF930F92CDB7DEB78983ED
:100610008A3019F48DE00E94FB0289810E94FB025E
:1006200080E090E00F90DF91CF9108958091C0001D
:1006300087FFFCCF8091C60008958091C00087FBA2
:10064000882780F90895CF93DF93EC018881811189
:1006500003C0DF91CF91089521960E94FB02F6CF4F
:10066000EF92FF920F931F93CF93DF9300D00F92DF
:10067000CDB7DEB78C011A821B82615071097B01F4
:100680000E94160389830E94FB0299819A3071F4BB
:10069000F80110828A819B810F900F900F90DF915B
:1006A000CF911F910F91FF90EF900895F981FD3048
:1006B00079F3F801898181938F01EA81FB81319679
:1006C000EA83FB83EE16FF06D9F6E2CF1F921FB630
:1006D0001F9211248F939F9380915401811551F0A3
:1006E00085B194E0892785B99F918F911F901FBE96
:1006F0001F9018952A98F8CF109254012A980895BF
:1007000081E0809354010895229A2A9882E0809390
:10071000B00091E09093B10091ED9093B30080937D
:1007200070000C947C038AB187798AB9549A219815
:10073000299A3A98429A8BB188668BB9089580E4D9
:1007400080937C0087E880937A00089587708064A6
:1007500080937C0080917A00806480937A008091FD
:100760007A0086FDFCCF8091780090917900089501
:10077000411111C0683321E0720780F0693C72407A
:1007800080F4883321E0920778F0893C924078F435
:1007900082E491E008958DE291E0089582E191E094
:1007A000089584E191E0089586E191E0089588E15B
:1007B00091E00895EFE9FFE03197F1F700C0000004
:1007C0000197C1F70895CF92DF92EF92FF920F93B6
:1007D0001F93CF93DF9399B1C1E0CC2E93FDCC262C
:1007E00009B1DC2E05FDDC2619B1EC2E16FDEC2638
:1007F000D3B1FC2ED1FDFC268091580193FF05C09A
:100800008115C9F00E947C0316C0811114C060914B
:100810005B0170915C0184E590E00E942F07C0931A
:1008200054010E94CA0560E080E00E94E2058AE16E
:1008300091E00E9411068091570105FF05C08115C6
:10084000D1F00E947C0317C0811115C060915B013B
:1008500070915C0187E490E00E942F0781E0809313
:1008600054010E94CA0560E080E00E94E20581E236
:1008700091E00E9411068091560116FF05C0811576
:10088000D1F00E947C0317C0811115C060915B01FB
:1008900070915C0183E590E00E942F0781E08093D6
:1008A00054010E94CA0560E080E00E94E20588E2EF
:1008B00091E00E94110680915501D1FF05C081157C
:1008C000D1F00E947C0317C0811115C060915B01BB
:1008D00070915C0180E590E00E942F0781E0809399
:1008E00054010E94CA0560E080E00E94E2058FE2A8
:1008F00091E00E941106C0925801D0925701E092F7
:100900005601F0925501DF91CF911F910F91FF9009
:10091000EF90DF90CF9008955C9A85ED8A95F1F77E
:1009200000005C980895CF93C82F87FF1FC0289AB6
:10093000C6FF1EC05F9AC5FF1DC05E9AC4FF1CC0E3
:100940005D9A0E948C0485ED8A95F1F70000C3FF43
:1009500015C0289AC2FF14C05F9AC1FF13C05E9AE7
:10096000C0FF12C05D9ACF910C948C042898E0CF00
:100970005F98E1CF5E98E2CF5D98E3CF2898EACF09
:100980005F98EBCF5E98ECCF5D98EDCF5B9A0E94BD
:1009900093048FE39FE10197F1F700C000000895F1
:1009A0005B980E9493048FE19EE40197F1F700C0E9
:1009B000000008955C982FEF89EF90E0215080406F
:1009C0009040E1F700C0000083E30E94D00483E37D
:1009D0000E94D00482E30E94D00488E20E94D004E6
:1009E0008CE00E94D00481E00E94D0042FEF89EFB8
:1009F00090E0215080409040E1F700C00000089551
:100A00000F931F93CF93DF9300D000D0CDB7DEB705
:100A10008C839A83498380EC623009F080E80E94DD
:100A2000D0048FE19EE40197F1F700C000000C8133
:100A30001A811A821B82F801808181110CC0F98110
:100A4000F1111BC00F900F900F900F90DF91CF917D
:100A50001F910F9108950F5F1F4F0E94C604EA81F6
:100A6000FB813196EA83FB83E6CF80E20E94C604D5
:100A70008A819B8101968A839B83EA81FB8170979F
:100A8000A4F3E0CFCF93DF930F92CDB7DEB7898386
:100A90000E94640688E70E94890680E00E94890619
:100AA00089810E9489060F90DF91CF910C9479067D
:100AB000CF93DF930F92CDB7DEB789830E94640690
:100AC00088E70E94890680E40E94890689810E9445
:100AD00089060F90DF91CF910C9479060E945F06F2
:100AE00087EA91E60197F1F700C000008EEA0E94C4
:100AF000420580E20E94420580E00E94420580EBB0
:100B00000E94420588EC0E94420580E00E94420556
:100B100080E10E94420580E40E94420581E80E9433
:100B200042058FEF0E94420581EA0E94420586EA53
:100B30000E94420588EA0E9442058FE30E94420516
:100B400084EA0E94420583ED0E94420580E00E94F3
:100B5000420585ED0E94420580EF0E94420589ED25
:100B60000E94420582E20E9442058AED0E944205EF
:100B700082E10E9442058BED0E94420580E20E94C4
:100B800042058DE80E94420584E10E9442058FEAF9
:100B90000C944205CF93DF93C0EB8C2F0E9442054B
:100BA00080E00E94420580E10E944205D0E880E09A
:100BB0000E945805D150D9F7CF5FC83B71F7DF913C
:100BC000CF910895CF93C62FCC0FC60FCC0F805571
:100BD0000E9442058C2F8E700E9442058C2F8295B8
:100BE0008F70805FCF910C9442051F93CF93DF935A
:100BF00080528B3308F080E095E0899FE00111245A
:100C0000C859DB4F15E0FE0184910E945805115030
:100C100021961111F8CF80E0DF91CF911F910C94B4
:100C20005805CF93DF93EC018881811103C0DF91D8
:100C3000CF91089521960E94F505F6CFFF920F936C
:100C40001F93CF93DF9300D000D00F92CDB7DEB7C4
:100C500089839A836B83F42E1C82EC81FB81EF17CE
:100C600058F00F900F900F900F900F90DF91CF9151
:100C70001F910F91FF9008958C8180550E9442052D
:100C800080E00E94420580E10E94420509811A81AC
:100C90008C818F9D000D111D11241D828D818F115E
:100CA00004C09C819F5F9C83D8CFF80184910E94EF
:100CB0005805FD81FF5FFD830F5F1F4FEFCF209829
:100CC000289857985F98089557985F9800C000C07B
:100CD00000002098289800C000C00000579A5F9834
:100CE00000C000C00000209A289800C000C000008A
:100CF0000895579A5F9800C000C000002098289877
:100D000000C000C0000057985F9800C000C00000FD
:100D1000089598E087FF23C057985F98880F00C018
:100D200000C000002098289800C000C00000209A51
:100D3000289800C000C00000915061F757985F9854
:100D40002098289800C000C0000089B1209A2898F7
:100D500000C000C000008038880B81950895579A24
:100D6000DCCFCDB7DEB761970FB6F894DEBF0FBE0C
:100D7000CDBF0E9493030E949F030E94E7020E943E
:100D800084030E945F060E946E0584EF91E00E943A
:100D9000DA030E94CA0584E690E00E94DA0360E06C
:100DA00080E00E94E20586E391E00E94110640E89F
:100DB00068E088E690E00E941E06789482E4C82EDF
:100DC00081E0D82E7E012FEFE21AF20A0E94E3039F
:100DD00080E00E94A6038C0181E00E94A6034427C4
:100DE000329B4395BC01C8010E94B8038C01C81610
:100DF000D90679F1FC018081811561F11F930F9370
:100E00008CE391E09F938F930E9470071F930F9341
:100E100083E491E09F938F93FF92EF920E94860765
:100E200041E062E0C7010E94000560E081E00E94AD
:100E3000E2058BE491E00E94110660E081E00E94EF
:100E4000E205C7010E9411060FB6F894DEBF0FBE7F
:100E5000CDBF680188EC90E00E94DA03B7CFA3E031
:100E6000B0E0E5E3F7E00C941A0A182F99836A833F
:100E70007B83DB0113968C9181FD09C01FEFBFEFCF
:100E8000B983812F99812396E3E00C94360A82FF7F
:100E90001BC0EA81FB8126813781848195812817D7
:100EA000390754F40190F081E02DCF010196AA8119
:100EB000BB818D939D931083EA81FB81868197810D
:100EC000019686839783DDCFAA81BB811896ED9129
:100ED000FD911A97BD01812F0995892B69F3CECF1A
:100EE000A0E0B0E0E6E7F7E00C941B0AAE014B5F30
:100EF0005F4FFA0161917191AF0180915B01909117
:100F00005C010E94AA07E2E00C94370AAEE0B0E070
:100F1000ECE8F7E00C941B0A86E08C832B893C8973
:100F200029833A838FEF9FE78D839E83AE01495ECD
:100F30005F4F6D897E89CE0101960E94AA07EF81DD
:100F4000F8852B893C89E20FF31F10822E96E2E090
:100F50000C94370AACE0B0E0E0EBF7E00C940E0A3A
:100F60005C016B017A01FC0116821782838181FF8B
:100F7000D3C12AE0522EF5012381F60123FD85918C
:100F800023FF81916F01811509F42CC1853239F459
:100F900023FD959123FF91916F01953229F4B501BD
:100FA00090E00E942F07E7CF30E0712C00E010E0C6
:100FB000103210F59B32C9F050F49032B9F09332F0
:100FC000C9F09E3261F516FD0DC1106405C09D3259
:100FD00079F0903399F41160F60123FD959123FF88
:100FE00091916F019111E4CF23C012601460F4CF8E
:100FF0001860F2CF1061F0CF17FD1AC080ED890F95
:101000008A30F8F616FF05C0759C800D1124782EE5
:10101000E3CF059D800D1124082F1062DDCF9C3693
:1010200011F41068D9CF9C3409F440C09836A1F26D
:10103000892F8F7D85548330D8F1933609F45FC0B2
:10104000933709F46AC0933509F476C0943619F0E1
:10105000993609F0A2C0F70117FF98C0619171910C
:10106000819191917F011F7697FF03C00E94030A2F
:1010700010682AE030E04E014FEF841A940AA40170
:101080000E94A509682E681816FFD2C0812F8E7F96
:10109000671408F0CCC014FF1DC112FD11C11E7EE3
:1010A000972C812F867809F4CEC00FC131E094CF00
:1010B000311509F1F8E0EF0EF11C8FE3898391E01F
:1010C000692E712C4E018FEF881A980A1F7713FD35
:1010D00004C06016710408F43FC06114710409F083
:1010E00042C0011509F447CFB50180E290E00E94AB
:1010F0002F070150F6CF44E0E40EF11CDECFF701DC
:1011000080818983F2E0EF0EF11C81E0682E712C62
:101110004E014FEF841A940AD9CFF7018190919034
:101120007F01672D70E016FD02C06FEF7FEFC401F5
:101130000E949A093C01CACFF701819091907F01EA
:10114000672D70E016FD02C06FEF7FEFC4010E94B3
:101150008F093C011068BBCFB50180E290E00E948E
:101160002F070150B6CFF40117FD859117FF81912C
:101170004F01B50190E00E942F0781E0011101C0ED
:1011800080E0081BF1E06F1A7108A7CF619171919F
:10119000872F880F880B982F65CF9537C9F41F7E4E
:1011A0001C872AE030E0FC85F7FF3BC0F701619126
:1011B0007191819191917F014E014FEF841A940AB0
:1011C000A4010E94A509682E68181C851F775CCFB2
:1011D000812F897F8C87903799F058F49835B9F032
:1011E0009F36E1F0F501868197812C96EFE00C9413
:1011F0002A0A9837B9F714FD06C020E130E0D3CFB2
:101200009C8590619C87EC85E460EC87F6CF14FFA9
:1012100002C016601C8720E132E0C5CF28E030E034
:10122000C2CFF7016191719180E090E0C4CF182F97
:10123000962C14FF36CFFE01E60DF11D8081803320
:1012400009F041C0197E13FD0EC010FF4FC0762C6F
:10125000901618F4700E7918902E802F89190915A0
:1012600008F480E0980E901608F042C0091914FFA7
:1012700041C0B50180E390E00E942F0712FF09C032
:1012800088E590E011FD02C088E790E0B5010E947A
:101290002F076714D0F14E018FEF881A980A6A94CD
:1012A000FE013296E60DF11D3F01F30182913F01EF
:1012B000B50190E00E942F0768147904B1F711CFAF
:1012C000972C182FB8CF12FD02C09394BCCF9394E3
:1012D0009394B9CF972C182FE4CEB50180E290E01B
:1012E0000E942F0783948016C0F3B7CF892CFBCFC1
:1012F00000E0BDCF812F867861F280E211FD8BE2A4
:1013000017FD8DE2B50190E0C2CFB50180E390E01A
:101310000E942F077A94BDCF8FEF9FEF66CFFC011D
:101320000590615070400110D8F7809590958E0F10
:101330009F1F0895FC016150704001900110D8F783
:10134000809590958E0F9F1F0895FA01AA27283047
:1013500051F1203181F1E8946F936E7F6E5F7F4F82
:101360008F4F9F4FAF4FB1E03ED0B4E03CD0670FFE
:10137000781F891F9A1FA11D680F791F8A1F911D51
:10138000A11D6A0F711D811D911DA11D20D009F4A1
:1013900068943F912AE0269F11243019305D3193E3
:1013A000DEF6CF010895462F4770405D4193B3E0CC
:1013B0000FD0C9F7F6CF462F4F70405D4A3318F073
:1013C000495D31FD4052419302D0A9F7EACFB4E024
:1013D000A6959795879577956795BA95C9F70097DC
:1013E0006105710508959B01AC010A2E069457957D
:1013F000479537952795BA95C9F7620F731F841FD4
:10140000951FA01D089590958095709561957F4FCB
:101410008F4F9F4F08952F923F924F925F926F92FE
:101420007F928F929F92AF92BF92CF92DF92EF9274
:10143000FF920F931F93CF93DF93CDB7DEB7CA1BF5
:10144000DB0B0FB6F894DEBF0FBECDBF09942A8820
:10145000398848885F846E847D848C849B84AA84C8
:10146000B984C884DF80EE80FD800C811B81AA8155
:10147000B981CE0FD11D0FB6F894DEBF0FBECDBF20
:08148000ED010895F894FFCF7F
:1014880000000002000000000203000000006800E5
:101498000100460042004C00520042544E3A20548B
:1014A8000042544E3A20470042544E3A20530042DC
:1014B800544E3A2050005245414459004A3A257347
:1014C8000D0A004A6F793A202573004A6F793A204D
:0414D80020202000B0
:00000001FF
